:1000000000000320D9040000DD0F00009D10000057
:100010001D0500001D0500001D050000000000007A
:100020000000000000000000000000006127000048
:100030001D0500000000000071290000E1290000FA
:100040000D0D0000390500003D05000041050000D0
:1000500045050000490500004D0500005105000060
:1000600055050000590500005D0500006105000010
:1000700065050000690500006D05000071050000C0
:10008000750500001D0500001D0500001D05000090
:100090001D0500001D0500001D0500001D050000D8
:1000A000790500007D050000810500008505000040
:1000B000890500008D0500009105000095050000F0
:1000C000990500009D050000A1050000A5050000A0
:1000D000A9050000AD050000B10500001D050000E8
:1000E0001D0500001D0500001D0500001D05000088
:1000F0001D0500001D0500001D0500001D05000078
:100100001D0500001D0500001D0500001D05000067
:100110001D0500001D0500001D0500001D05000057
:100120001D0500001D0500001D0500001D05000047
:100130001D050000910F00001D0500001D050000B9
:100140001D050000B5050000B9050000BD05000053
:10015000C1050000C50500001D0500001D050000CB
:100160001D0500001D050000C9050000CD050000AB
:10017000D1050000D5050000D9050000DD0500000F
:10018000E1050000E5050000E9050000AD6F000095
:10019000CD6F0000ED6F00001D0500001D05000083
:1001A0001D0500001D0500001D0500001D050000C7
:1001B0001D0500001D0500001D0500001D050000B7
:1001C0001D0500001D0500001D0500001D050000A7
:1001D0001D0500001D0500001D0500001D05000097
:1003F0001D0500001D0500001D050000FFFFFFFF9B
:10040000FFFFFFFFFFFFFFFFFFFFFFFFFEFFFFFFFD
:1004100010B5054C237833B9044B13B10448AFF33E
:1004200000800123237010BD0010FF1F000000009A
:10043000BC9C000008B5064B1BB106480649AFF34B
:1004400000800648036813B1054B03B1984708BD07
:1004500000000000BC9C00000410FF1F7000FF1F84
:1004600000000000154B002B08BF134B9D46A3F561
:10047000803A00218B460F461348144A121A08F09E
:100480003CFA0F4B002B00D098470E4B002B00D0AE
:1004900098470020002104000D000D48002802D0DC
:1004A0000C48AFF3008008F0F9F92000290001F0B2
:1004B0004BFE08F0DFF900BF000008000000032039
:1004C00000000000000000000010FF1FF86DFF1F7B
:1004D000000000000000000072B6094809490160F0
:1004E0000948804709490A4A0A4B9A42BEBF51F857
:1004F000040B42F8040BF8E762B607488047000097
:1005000008ED00E000000000F90B0000E49C000092
:100510000000FF1F7400FF1F65040000FFF7FEBF0F
:1005200035480047354800473548004735480047BB
:1005300035480047354800473548004735480047AB
:10054000354800473548004735480047354800479B
:10055000354800473548004735480047354800478B
:10056000354800473548004735480047354800477B
:10057000354800473548004735480047354800476B
:10058000354800473548004735480047354800475B
:10059000354800473548004735480047354800474B
:1005A000354800473548004735480047354800473B
:1005B000354800473548004735480047354800472B
:1005C000354800473548004735480047354800471B
:1005D0003448004733480047324800473148004715
:1005E000304800473048004730480047304800470F
:1005F0003048004730480047DD0F00009D100000E4
:100600006127000071290000E12900006D6E0000E3
:10061000816E0000956E0000A96E0000BD6E0000A6
:10062000D16E0000E56E0000F96E00000D6F000055
:10063000216F0000356F0000496F00005D6F000002
:10064000716F0000856F0000996F00001D050000AC
:100650006D790000897900006D5F0000A95F0000DE
:10066000C1790000057A00001D050000B57E00007C
:100670001D050000E17E00001D0500000D7F00004B
:100680001D050000397F00001D050000E55F00002A
:10069000657F00001D050000917F00001D05000022
:1006A000A57900000D700000497A00001D050000CA
:1006B0001D0500001D0500001D0500000FB480B5DC
:1006C00082B000AF0B4B1B78002B02D14FF0FF33F1
:1006D00009E007F114033B60074839693A6800F004
:1006E000D5F878607B6818460837BD46BDE880407D
:1006F00004B070471C10FF1FFD06000080B582B0DB
:1007000000AF78600A4B1B78002B02D14FF0FF330B
:1007100009E0074B9B68064A51683A1D0846114696
:1007200001229847012318460837BD4680BD00BF07
:100730001C10FF1F80B586B000AFB9607A603B60C7
:100740000346FB73BB687B610CE097F90F203B6AA3
:10075000104698473B681B685A1C3B681A607B69C7
:1007600001337B617A697B689A42EEDB1837BD46BC
:1007700080BD00BF80B48DB000AFF860B9607A6012
:100780003B600023FB61FB68BB61BB695A1CBA611B
:1007900000221A707B68002B36D0BB681B68FB6296
:1007A000FB6A002B07D1BB6930221A70FB69013349
:1007B000FB61FB6964E023E0FA6A3B6892FBF3F3B8
:1007C0007B617B693A6802FB03F3FA6AD31ABB6266
:1007D000BB6A002B06DABB6A3B623B6AC3F130039B
:1007E000BB6202E0BB6A3033BB627B69FB62BB6900
:1007F0005A1CBA61BA6AD2B21A70FB690133FB6142
:10080000FB6A002BD8D13AE0BB681B687B627B6A2D
:10081000002B07D1BB6930221A70FB690133FB61E1
:10082000FB692DE028E03B687A6AB2FBF3F33B6199
:100830003B683A6902FB03F37A6AD31A3B623B6A6C
:10084000092B03D83B6A30333B620AE097F8383013
:10085000002B01D0412300E061233A6A13440A3B94
:100860003B623B697B62BB695A1CBA613A6AD2B28D
:100870001A70FB690133FB617B6A002BD3D1FB69E2
:1008800018463437BD465DF8047B704780B59CB090
:1008900002AFF860B9607A6000233B660023FB6515
:1008A0000023BB61002387F84A3000233B61BB680B
:1008B0007B6693E17B6C252B06D0FB68786C9847B0
:1008C000BB690133BB6186E1012387F84B3000230C
:1008D0007B650023BB651CE07B6E01337B667B6E12
:1008E0001B785BB27B647B6C2F2B0DDD7B6C392B13
:1008F0000ADC7A6D13469B0013445B001A467B6C3E
:100900001344303B7B6504E07B6E013B7B66012337
:10091000BB65BB6D002BDFD006233B657B6E0133CF
:100920007B667B6E1B785BB22E2B25D100233B654B
:100930000023BB651CE07B6E01337B667B6E1B78FE
:100940005BB27B647B6C2F2B0DDD7B6C392B0ADC5F
:100950003A6D13469B0013445B001A467B6C1344AC
:10096000303B3B6504E07B6E013B7B660123BB654E
:10097000BB6D002BDFD002E07B6E013B7B667B6EA4
:1009800001337B667B6E1B785BB27B647B6C642B74
:100990001BD07B6C692B18D07B6C662B15D07B6CC5
:1009A000462B12D07B6C782B0FD07B6C582B0CD045
:1009B0007B6C6F2B09D07B6C622B06D07B6C702B11
:1009C00003D07B6C752B40F0C5807B6C642B02D010
:1009D0007B6C692B17D17B681A1D7A601B687B6161
:1009E00007F11C0207F1140397F84B100091104611
:1009F000194601220A23FFF7BDFEF86507F11C0224
:100A0000FB6D13443B667B6C582B02D07B6C782BC0
:100A10001DD17B6C782B02D1002387F84B307B688B
:100A20001A1D7A601B683B6107F11C0207F1100375
:100A300097F84B1000911046194600221023FFF73B
:100A400099FEF86507F11C02FB6D13443B667B6C55
:100A50006F2B08D07B6C622B05D07B6C702B02D087
:100A60007B6C752B59D17B681A1D7A601B683B61C2
:100A70007B6C623B132B3BD801A252F823F000BFE2
:100A8000D90A0000F10A0000F10A0000F10A000092
:100A9000F10A0000F10A0000F10A0000F10A00006A
:100AA000F10A0000F10A0000F10A0000F10A00005A
:100AB000F10A0000D10A0000E10A0000F10A00007A
:100AC000F10A0000F10A0000F10A0000E90A000042
:100AD000082387F84A300CE0022387F84A3008E000
:100AE000102387F84A3004E00A2387F84A3000E0F0
:100AF00000BF97F84A3007F11C0107F1100297F880
:100B00004B000090084611460022FFF733FEF865BF
:100B100007F11C02FB6D13443B667A6D07F1180365
:100B2000F96800912020F96DFFF704FE3B6E002B61
:100B30000FD00AE03B6E5A1E3A661B785AB2FB6829
:100B400010469847BB690133BB613B6E1B78002B95
:100B5000F0D140E07B6C632B0DD17B681A1D7A606D
:100B60001B68DBB25BB23B64FB68386C9847BB69BF
:100B70000133BB612FE07B6C732B26D17B681A1D80
:100B80007A601B68FB64FB6C002B24D0F86C07F0C8
:100B9000BCFE0346FB657A6D07F11803F968009106
:100BA0002020F96DFFF7C6FD0AE0FB6C5A1CFA64C1
:100BB0001B785AB2FB6810469847BB690133BB618A
:100BC000FB6C1B78002BF0D105E0FB68786C984734
:100BD000BB690133BB617B6E01337B667B6E1B7827
:100BE0005BB27B647B6C002B7FF464AEBB69184600
:100BF0006837BD4680BD00BF80B400AF0B4B0B4AC9
:100C0000D2F8882042F47002C3F88820084B4CF2D6
:100C10002052DA81064B4DF62812DA81044B4FF44C
:100C2000E9721A80BD465DF8047B704700ED00E074
:100C30000020054080B483B000AF786039607B68E5
:100C40001A6B3B681A437B681A630C37BD465DF824
:100C5000047B704780B483B000AF786039607B68F4
:100C60001A6B3B68DB431A407B681A630C37BD463E
:100C70005DF8047B704700BF80B483B000AF78603C
:100C80007B681B6823F001027B681A600C37BD4645
:100C90005DF8047B704700BF80B483B000AF78601C
:100CA0007B681B6843F001027B681A600C37BD4605
:100CB0005DF8047B704700BF80B485B000AFF8607A
:100CC000B9601346FB71FB68BA6853F8223023F40D
:100CD0007022FB791B0403F4702342EA0301FB68D2
:100CE000BA6843F822101437BD465DF8047B70479C
:100CF00080B483B000AF786039607B683A68C3F82D
:100D0000A0200C37BD465DF8047B704780B582B0EB
:100D100000AF554B0022DA775448FFF7BDFF534828
:100D20005349FFF797FF534B1B78002B7BD0514B58
:100D300000221A704C4B03F580531E331B889BB264
:100D4000032B24D00023BB7114E04B4B1A68BB79F2
:100D50005B001344C3F30C02484B13433B60BA7966
:100D60003B681B889B0099B2454B23F81210BB7956
:100D70000133BB71BB790E2BE7D9414B184601F00B
:100D800061F901F053F900BF0223FB7139E03A4BDE
:100D90001B681B881A464FF6C37313404FF6437205
:100DA000934202D10F23FB712BE0334B1B680233BC
:100DB000C3F30C02314B13433B603B681B881A465C
:100DC0004FF6C37313404FF64372934202D1102380
:100DD000FB7116E0284B1B680433C3F30C02274B4E
:100DE00013433B603B681B881A464FF6C37313409E
:100DF0004FF64372934202D11123FB7101E00223AB
:100E0000FB71194B03F5805310331B681A461A4BBC
:100E10001A60FB79184600F0E9FF1A4802210C22FB
:100E2000FFF74AFF1CE0134B00221A70164B0122F9
:100E30001A70164B1B78002B0BD0154B1B78062B0A
:100E400007D100F055FD0F4802210022FFF734FFC3
:100E500006E00C4802210C22FFF72EFF00F0FCFFF9
:100E60000837BD4680BD00BF0080004000C0024082
:100E700000000303896CFF1F286CFF1F0020FF1F69
:100E80001840FF1F00B00440206CFF1F006CFF1FC4
:100E9000886CFF1F80B588B002AFF860B9607A60D7
:100EA0003B6000233B617A6840F2EA339A4221D1E9
:100EB000304B00221A70304B1B78052B07D12F4B7B
:100EC0005B68B3F5006F02D105237B6112E02A4B0A
:100ED0001B78062B06D1294B5B680A2B02D106230F
:100EE0007B6107E0244B1B781B0443F4706343F0E1
:100EF00007037B617A6840F2EB339A4220D1204BA2
:100F000000221A701C4B1B78032B06D11D4B5B680B
:100F1000012B02D103237B6112E0174B1B78022BBC
:100F200006D1184B5B680A2B02D102237B6107E0D4
:100F3000114B1B781B0443F4704343F007037B61A0
:100F4000114B1B6807F110020092184679690322C1
:100F5000002303F03BFA3B69002B07D00B4B4FF00B
:100F600080521A60BFF34F8FBFF36F8F1837BD46A3
:100F700080BD00BF6C6CFF1F886CFF1F5C6CFF1F87
:100F8000C86CFF1FE86CFF1FE46CFF1F04ED00E05E
:100F900080B500AF0B4B0C4A9A600A480421FFF75A
:100FA000A7FE0A4B01221A70094B0022DA76094883
:100FB0000949FFF73FFE0748FFF75EFE044B022298
:100FC000DA7680BD00B0044040010001896CFF1F4B
:100FD0000080004000C002400000030380B483B0E2
:100FE00000AF00237B6003E000BF7B6801337B60C0
:100FF0007B68092BF8DD0C37BD465DF8047B704734
:1010000080B491B000AF7860FB6BBB6B7B6B3B6BCC
:10101000FB6ABB6A7B6A3B6AFB69BB697B693B69AC
:10102000FB68BB687B681B68FB637B685B68BB63B2
:101030007B689B687B637B68DB683B637B681B69C1
:10104000FB627B685B69BB627B689B697B627B68D8
:10105000DB693B620B4B1B68FB610B4B1B68BB6185
:101060000A4B1B687B610A4B1B683B61094B1B6881
:10107000BB60094B1B68FB6000BE4437BD465DF892
:10108000047B704728ED00E02CED00E030ED00E03F
:101090003CED00E034ED00E038ED00E004205FEAD4
:1010A0000E01084200F00480EFF3098000F002B85E
:1010B000EFF308804169FFF7A3BF00BF80B483B09E
:1010C00000AF03463960FB7197F90730002B0BDA4C
:1010D0000D49FB7903F00F03043B3A68D2B21201C9
:1010E000D2B20B441A7609E0084997F907303A68FA
:1010F000D2B21201D2B20B4483F800230C37BD46A2
:101100005DF8047B704700BF00ED00E000E100E007
:1011100080B483B000AF786039607B681A6B3B683D
:101120001A437B681A630C37BD465DF8047B704731
:1011300080B582B000AF786039603B680F2B05D96D
:101140000A4864210A4A0B4B04F0D4FA7A683B68D7
:1011500013441B78DBB263F07F03DAB279683B6833
:101160000B441A700837BD4680BD00BF20890000BF
:10117000589700003889000080B584B000AFF8604F
:10118000B9607A60BB680F2B05D90E4882210E4AE0
:101190000E4B04F0AFFAFA68BB6813441B78DBB25D
:1011A00023F03F03DAB27B68DBB203F03F03DBB22C
:1011B0001343DAB2F968BB680B441A701037BD46A6
:1011C00080BD00BF208900004497000038890000DE
:1011D00080B483B000AF78600B46FB70FB78002BC7
:1011E0000AD07B6893F82130DBB263F07F03DAB278
:1011F0007B6883F8212009E07B6893F82130DBB21B
:1012000003F07F03DAB27B6883F821200C37BD46F8
:101210005DF8047B704700BF80B58EB000AF00233F
:101220003B741A4B7B611023BB6100233B77012386
:101230007B770023BB7785233B6285237B6240F26B
:10124000CB73BB62012387F82C30012387F82D3044
:10125000002387F82E30002387F82F30002387F8EB
:101260003030002387F83130022003F0C5FE786368
:1012700007F11003064819467A6B04F0E5FB0448B1
:101280000449FFF745FF3837BD4680BDE070720066
:1012900000C002400000030380B588B000AFF860D2
:1012A000B9607A603B600023FB610123BB610223CC
:1012B0007B612B4804F014FB2948F9694FF48772CD
:1012C000FFF75AFF2648F969FFF732FF244879698A
:1012D00040F20F12FFF750FF21487969FFF728FF0E
:1012E00007F11003184605F015F807F110031D4823
:1012F000194604F0C9FF1C4805F06AF81B4805F0C0
:1013000067F8184B03F582531C3300221A801549E5
:10131000144B03F582531C331B889BB243F0080324
:101320009AB201F582531C331A800E4B03F5805399
:101330001C3300221A800B490A4B03F580531C33DF
:101340001B889BB243F00A039AB201F580531C3309
:101350001A8000200121FFF7B1FE2037BD4680BD75
:10136000001002400080004000900040409000408B
:1013700080B58AB002AFF860B9607A600323FB6180
:101380000423BB61254804F0ABFA2448B9694FF443
:101390008172FFF7F1FE2148B969FFF7C9FE1F48C6
:1013A000F96940F20312FFF7E7FE1C48F969FFF7FD
:1013B000BFFE07F11403184604F0ACFF07F1140355
:1013C0001748194604F060FFB8680021182207F09A
:1013D00094FA78680021182207F08FFAB86810494B
:1013E000BA6905F0BDF878680D49FA6905F0B8F8F2
:1013F0007B680093BB6801930A48F9680A4A002396
:1014000006F0B0FE03200921FFF758FE0420082152
:10141000FFF754FE2037BD4680BD00BF00100240DC
:101420000080004000A00640950E000080B584B00A
:1014300000AF3B1D184606F0DFFC4FF4E1137B6064
:1014400001233B7301237B73002003F0D5FD03468A
:101450003A1D044811461A4606F062FB1037BD4695
:1014600080BD00BF00A0064080B58AB002AF002357
:101470003B7001237B703223BB700023FB703B1D4C
:10148000184605F0F3FF00233B7103237B71802393
:10149000BB600023FB6000233B7400237B740123AB
:1014A000BB7400237B610023BB6100233B770023D7
:1014B0007B770023BB773B1D1548194605F056FF87
:1014C000022003F099FD02463B464FF40041009193
:1014D00001920F4819460122002306F003F8002369
:1014E0003B703B1D0B48194605F040FF022003F0FE
:1014F00083FD02463B460849009101920548194682
:101500000122002305F0EEFF2037BD4680BD00BF5D
:101510000080034000A00340A025260080B58AB0CB
:1015200002AF00233B7001237B703223BB7000238A
:10153000FB703B1D184605F099FF00233B71032308
:101540007B718023BB600023FB6000233B7400237E
:101550007B740123BB7400237B610023BB610023E8
:101560003B7700237B770023BB773B1D0F48194651
:1015700005F0FCFE022003F03FFD02463B4643F22D
:101580000C3100910192094819460122002305F00F
:10159000A9FF0648012106F02BF9044B034AD26843
:1015A00042F00102DA602037BD4680BD0090034062
:1015B00080B582B000AF3B1D184604F033F93B1DE7
:1015C0000A48194604F0F0F8084B084A92F822201D
:1015D000D2B222F00102D2B283F8222003480121C4
:1015E000FFF7F6FD0837BD4680BD00BF00C00C40C8
:1015F00080B582B000AF194804F072F91748052190
:101600004FF48E72FFF7B8FD14480521FFF790FDE7
:101610003B1D184604F07EFE3B1D1148194604F0A0
:1016200033FE104804F0D4FE0E4804F0D1FE0C4BFB
:1016300003F585531C3300221A800949084B03F532
:1016400085531C331B889BB243F008039AB201F503
:1016500085531C331A800837BD4680BD00100240F8
:1016600000800040A090004080B483B000AF0346EB
:10167000FB71084B97F907205209F97901F01F0116
:10168000012000FA01F143F822100C37BD465DF845
:10169000047B704700E100E080B483B000AF0346F4
:1016A000FB71094B97F907205209F97901F01F01E5
:1016B000012000FA01F1603243F822100C37BD46D8
:1016C0005DF8047B704700BF00E100E080B483B0A8
:1016D00000AF786039607B681A6B3B681A437B689F
:1016E0001A630C37BD465DF8047B704780B483B045
:1016F00000AF78607B68343318460C37BD465DF820
:10170000047B704780B483B000AF78607B68383367
:1017100018460C37BD465DF8047B704780B483B033
:1017200000AF78607B681B6823F001027B681A6059
:101730000C37BD465DF8047B704700BF80B483B0B2
:1017400000AF78607B681B6843F001027B681A6019
:101750000C37BD465DF8047B704700BF80B485B090
:1017600000AF78600B46FB707B681B68FB60FB6812
:1017700023F01803FB60FB78DB0003F01803FA6822
:101780001343FB607B68FA681A601437BD465DF846
:10179000047B704780B483B000AF78607B681B68BF
:1017A00023F018027B681A600C37BD465DF8047B95
:1017B000704700BF80B485B000AFF860B9601346D1
:1017C000FB71FB68BA6853F8223023F47022FB796E
:1017D0001B0403F4702342EA0301FB68BA6843F870
:1017E00022101437BD465DF8047B704780B485B085
:1017F00000AFF860B9601346FB71FB79002B05D18F
:10180000BB6801229A40FB689A6004E0BB68012231
:101810009A40FB685A601437BD465DF8047B7047F8
:1018200080B582B000AF786010480121FFF796FFC5
:101830000F480121FFF792FF0E48FFF77FFF0D4889
:10184000FFF76CFF0C4B0022DA760020FFF70CFF4D
:101850003D20FFF709FF094802210022FFF7AAFFF8
:101860004FF0FF3001F0F0FFFAE700BF00A00340A7
:101870000090034000C002400080004000B00440DF
:1018800080B582B000AF0023FB711DE0FB799A00A8
:10189000144B1A44FB799900124B0B441B681B0C28
:1018A0001B04F979490008460F4901440978194396
:1018B000FB795B00581C0C4B03441B781B020B4349
:1018C0001360FB790133FB71FB79042BDED900F047
:1018D0003BFB00F0F5FB054B00221A700837BD46B4
:1018E00080BD00BF3810FF1F0C40FF1F896CFF1F19
:1018F00080B582B000AF0023FB711CE0FB795B0078
:101900001A46154B1344FA795100144A0A441288B6
:10191000D2B21A70FB795B005A1C0F4B1344FA7950
:1019200051000E4A0A441288120A92B2D2B21A70B8
:10193000FB790133FB71FB79042BDFD9084B0A22B9
:101940005A60084B01221A7007480849044A06F0F9
:1019500071FC0837BD4680BD0040FF1F2C10FF1FE3
:101960005C6CFF1F6C6CFF1F00A00640046CFF1F27
:1019700080B584B000AF7860A14B1B78002B0ED1EE
:101980009F4B03221A709F4B01225A609E4B0122EB
:101990001A709E489E499B4A06F0D2FC2FE107F13F
:1019A0000803002000211A464FF0FF3302F0B4FC78
:1019B0000346012B40F02381BB68DAB2904B1B78C1
:1019C0009A4204D0BB68184600F0B6FB17E18C4B76
:1019D0001B78062B00F20F8101A252F823F000BF02
:1019E000FD190000F71B0000CB1B00001B1A0000B4
:1019F000F71B0000EF1B0000E71B0000804B0322D9
:101A00001A70804B01225A607F4B01221A707F4866
:101A10007F497C4A06F094FCF1E000F067FB034646
:101A2000FB737C4B1B78DAB2FB7B1B01DBB21343ED
:101A3000DBB2DAB2784B1A7074487749012206F0AB
:101A400009FA744B1B78C03B0C2B00F2B98001A241
:101A500052F823F0E71A0000891A0000C91A0000A2
:101A6000C11B0000C11B0000C11B0000C11B000006
:101A7000C11B00002D1B0000911B00009D1B0000DE
:101A8000A91B0000B51B0000644802210022FFF7DB
:101A900091FE3D20FFF700FE5E4B1B78C12B14BF6B
:101AA00000230123DAB25E4B1A70554B02221A70E2
:101AB000544B0A225A60544B01221A70534854491D
:101AC000504A06F03DFC7FE0524B1B78C12B14BFFF
:101AD00000230123DAB2524B1A70494B00221A70CC
:101AE00000F0BAF970E04D4802210022FFF762FED3
:101AF0003D20FFF7D1FD4B4B0022DA77454B1B7899
:101B0000C12B14BF00230123DAB2454B1A703C4BA2
:101B100002221A703B4B0A225A603B4B01221A7078
:101B20003A483B49374A06F00BFC4DE0FB7B002B63
:101B30002AD03D4B1B685A003C4B1A443C4B1A6060
:101B40003B4B4FF400625A603A4B01221A702F4807
:101B50002F49374A06F06EFB294B05221A70324B8B
:101B60001B6803F58063B3F5805F06DB2E4B1B68B3
:101B7000A3F540622C4B1A6026E02B4B1B6803F543
:101B80008062294B1A601FE01D4B00221A701BE077
:101B90001B4B00221A7000F0C1F815E0184B002210
:101BA0001A7000F049F80FE0154B00221A7000F08F
:101BB0007DF809E0124B00221A7000F0CBF803E028
:101BC0000F4B00221A7000BF19E0154B1B78002B39
:101BD00003D00B4B06221A7002E0094B00221A7048
:101BE000FFF74EFE0BE0064B00221A7007E0044B95
:101BF00000221A7003E0024B00221A7000BFBBE6FD
:101C0000886CFF1FE86CFF1FC86CFF1F00A0064018
:101C1000046CFF1F0C40FF1F0040FF1F00B004407A
:101C2000006CFF1F00800040C46CFF1F0020FF1FDE
:101C30005C6CFF1F6C6CFF1F80B500AF154B154A25
:101C4000926C22F4E06242F480729A64124812218B
:101C50000122FFF7CBFD104812210022FFF7C6FD3D
:101C60000D4812210122FFF7C1FD0C4B0B4A5268AF
:101C700022F4E06242F480625A6009481021012295
:101C8000FFF7B4FD07480121FFF768FD0648FFF79D
:101C900081FD80BD00A0044040F00F4000B0044032
:101CA00080F00F400080034000A0034080B500AFEB
:101CB000154B154A926C22F4E06242F440729A6429
:101CC000124B124A526822F4E06242F480725A6067
:101CD0000F4801210122FFF789FD0D480121002253
:101CE000FFF784FD0A4801210122FFF77FFD084824
:101CF00010210022FFF77AFD0648FFF74BFD06484A
:101D00000121FFF72BFD80BD00A0044000B004407E
:101D100080F00F400080034000A0034080B582B0F7
:101D200000AF0B4813210022FFF760FD00237B600A
:101D300003E000BF7B6801337B607B68092BF8DD23
:101D4000034813210122FFF751FD0837BD4680BD2E
:101D500040F00F4080B582B000AF1E4B1D4A926C20
:101D600022F4E06242F480729A641B48122101223C
:101D7000FFF73CFD184812210022FFF737FD1648F7
:101D800012210122FFF732FD144B144A526822F44B
:101D9000E06242F480725A60114801210122FFF78B
:101DA00025FD0F4801210022FFF720FD0C480121ED
:101DB0000122FFF71BFD0A4810210022FFF716FD44
:101DC0000848FFF7E7FC0848FFF7E4FC0837BD4682
:101DD00080BD00BF00A0044040F00F4000B00440B0
:101DE00080F00F400080034000A0034080B483B027
:101DF00000AF0346FB71164B164A03F582531A6077
:101E0000134B03F58253083304221A60104BFA79FE
:101E100092B203F5825316331A800D4BFA7992B2BF
:101E200003F582531E331A80094BFA7992B203F5F7
:101E3000805316331A80064BFA7992B203F5805319
:101E40001E331A800C37BD465DF8047B704700BF17
:101E5000008000404C10FF1F98B500AF364B374A4A
:101E600003F582531A60344C3548FFF73FFC0246B5
:101E700004F5825310331A602F4B03F58253063357
:101E800040F202221A802C4B03F5825304330422C1
:101E90001A80294B03F58253143300221A80264BF3
:101EA00003F582530C336FF005021A60224B03F5E1
:101EB0008253083304221A601F4B03F582531633F2
:101EC00002221A801C4B03F582531E3302221A8011
:101ED000194C1B48FFF716FC024604F580531A60A4
:101EE000154B184A03F5805310331A60124B03F553
:101EF0008053063340F269121A800F4B03F580536A
:101F0000043300221A800C4B03F580531433022251
:101F10001A80094B03F58053083302221A60064BDE
:101F200003F58053163302221A80034B03F58053C6
:101F30001E3302221A8098BD008000404C10FF1F03
:101F400000C002400020FF1F98B500AF334B344A59
:101F500003F582531A60314C3248FFF7C7FB024643
:101F600004F5825310331A602C4B03F58253063369
:101F700040F202221A80294B03F5825304330422D3
:101F80001A80264B03F58253143300221A80234B08
:101F900003F58253083304221A60204B03F5825361
:101FA000163305221A801D4B03F582531E3305227A
:101FB0001A801A4C1B48FFF7A5FB024604F5805314
:101FC0001A60164B184A03F5805310331A60134BEE
:101FD00003F58053063340F201121A800F4B03F5CC
:101FE0008053043300221A800C4B03F580531433C2
:101FF00002221A80094B03F58053083302221A602B
:10200000064B03F58053163305221A80034B03F564
:1020100080531E3305221A8098BD00BF0080004007
:102020003810FF1F00C002402C10FF1F80B400AF0B
:10203000034B0522DA76BD465DF8047B704700BF8E
:102040000080004080B483B000AF78601A4B03F585
:1020500085537A681A60184B03F585531033174A75
:102060001A60154B03F58553063346F601121A80A4
:10207000114B03F58553043302221A800E4B03F5EE
:102080008553143300221A800B4B03F58553083314
:1020900002221A60084B03F58553163311221A8069
:1020A000054B03F585531E3311221A800C37BD46AC
:1020B0005DF8047B704700BF0080004000C00C400A
:1020C00080B500AF064B0022DA7606480649FFF7D6
:1020D000FDFA0448FFF722FB014B0222DA7680BDAD
:1020E0000080004000C002400000030380B483B0C1
:1020F00000AF0E4B03F5805310331A680C4B1B686E
:10210000D21A0C4BD31A83EAE372A2EBE37240F2C9
:10211000FF339A42D4BF00230123FB71FB79184699
:102120000C37BD465DF8047B704700BF008000405F
:10213000C46CFF1F0020FF1F80B485B000AF786023
:102140007B68FB6000BFFDE780B584B002AF06F09E
:10215000D1FA06F003FAFFF75FF840484049414AD8
:10216000414BFFF799F8FFF761F940484049414A70
:10217000FFF7FEF8FFF778F9FFF7D0F9FFF718FA45
:10218000FFF736FA0023FB7109E0FB799A003A4B1E
:1021900013444FF480321A60FB790133FB71FB79F1
:1021A000042BF2D90023BB7109E0BB799A00334BB1
:1021B00013444FF480321A60BB790133BB71BB7991
:1021C000102BF2D900237B7109E07B795A002C4B4C
:1021D000134440F68F121A807B7901337B717B792F
:1021E000102BF2D9274B284A1A60264B04225A603A
:1021F000264B274A1A60254B01225A60254B0022A4
:102200001A70254B00221A70244B00221A70244B9E
:1022100000221A70234B00221A70234B00221A70DE
:10222000224B00221A7002230093214B0193214874
:1022300021494FF48072002301F0C2F90223009378
:102240001E4B01931E481F494FF48072002301F07A
:10225000B7F901F02BFB00BFFDE700BF006DFF1FCA
:10226000706CFF1F446CFF1F8C6DFF1F046CFF1F01
:102270002C6CFF1FCC6CFF1F3810FF1F4C10FF1F72
:102280001840FF1F5C6CFF1F0040FF1FE86CFF1F22
:102290000C40FF1F896CFF1F6C6CFF1FC86CFF1F79
:1022A000206CFF1F006CFF1F806DFF1F886CFF1FDD
:1022B000E46CFF1F7119000064890000246CFF1F8B
:1022C000211800007089000080B58AB000AF7860E6
:1022D0000023FB6101F034FB574B1B68002B01D13D
:1022E00000F00CF9554B1A687B681340002B40F046
:1022F0008C807B68002B1CD008237A6813447B6099
:102300007B6803F00703002B13D07B6823F00703DF
:1023100008337B607B6803F00703002B09D04FF084
:10232000500383F31188BFF36F8FBFF34F8F7B612F
:10233000FEE77B68002B68D0414B1B687A689A42A5
:1023400063D8404B3B623F4B1B687B6204E07B6A77
:102350003B627B6A1B687B627B6A5A687B689A4235
:1023600003D27B6A1B68002BF1D1334B1B687A6A5E
:102370009A424AD03B6A1A6808231344FB617B6A7D
:102380001A683B6A1A607B6A5A687B68D21A08230B
:102390005B009A421ED97A6A7B681344BB61BB69B1
:1023A00003F00703002B09D04FF0500383F311888B
:1023B000BFF36F8FBFF34F8F3B61FEE77B6A5A68B5
:1023C0007B68D21ABB695A607B6A7A685A60B869BE
:1023D00000F0F6F81A4B1A687B6A5B68D21A184B41
:1023E0001A60174B1A68184B1B689A4203D2144B99
:1023F0001A68154B1A607B6A5A68104B1B681A439F
:102400007B6A5A607B6A00221A6001F0A7FAFB69B6
:1024100003F00703002B09D04FF0500383F311881A
:10242000BFF36F8FBFF34F8FFB60FEE7FB6918466A
:102430002837BD4680BD00BF4468FF1F5068FF1F9E
:102440004868FF1F3C68FF1F4C68FF1F80B586B0BF
:1024500000AF78607B687B617B68002B46D00823E7
:102460005B427A6913447B617B693B613B695A68D3
:10247000204B1B681340002B09D14FF0500383F30E
:102480001188BFF36F8FBFF34F8FFB60FEE73B698F
:102490001B68002B09D04FF0500383F31188BFF362
:1024A0006F8FBFF34F8FBB60FEE73B695A68114BDC
:1024B0001B681340002B19D03B691B68002B15D1FA
:1024C0003B695A680B4B1B68DB431A403B695A60F7
:1024D00001F036FA3B695A68074B1B681A44064BF1
:1024E0001A60386900F06CF801F038FA1837BD4608
:1024F00080BD00BF5068FF1F4868FF1F80B485B0D3
:1025000000AF4FF42053BB60274BFB60FB6803F028
:102510000703002B0CD0FB680733FB60FB6823F03C
:102520000703FB60BA68FB68D21A1F4B1344BB60F9
:10253000FB687B601D4B7A681A601C4B00225A6056
:102540007A68BB681344FB600823FA68D31AFB60FF
:10255000FB6823F00703FB60FA68154B1A60144B05
:102560001B6800225A60124B1B6800221A607B68AD
:102570003B603B68FA68D21A3B685A600C4B1A6899
:102580003B681A603B685A680A4B1A603B685A6895
:10259000094B1A60094B4FF000421A601437BD46D0
:1025A0005DF8047B704700BF3C40FF1F3C68FF1F85
:1025B0004468FF1F4C68FF1F4868FF1F5068FF1FDB
:1025C00080B485B000AF7860274BFB6002E0FB6809
:1025D0001B68FB60FB681A687B689A42F7D3FB684C
:1025E000BB60FB685B68BA681A447B689A4208D192
:1025F000FB685A687B685B681A44FB685A60FB6832
:102600007B607B68BB607B685B68BA681A44FB6868
:102610001B689A4218D1FB681A68144B1B689A42CF
:102620000DD07B685A68FB681B685B681A447B683E
:102630005A60FB681B681A687B681A6008E00B4BDD
:102640001A687B681A6003E0FB681A687B681A6086
:10265000FA687B689A4202D0FB687A681A6014377D
:10266000BD465DF8047B70473C68FF1F4468FF1F50
:1026700080B400AF094B0A4A11680A4AA2FB010262
:102680009209013A1A60084B00221A60074B072290
:102690001A60BD465DF8047B704700BF14E000E09F
:1026A0000000FF1FD34D621018E000E010E000E0D2
:1026B00080B485B000AFF860B9607A60FB68043B15
:1026C000FB60FB684FF080721A60FB68043BFB60A4
:1026D000BB6823F00102FB681A60FB68043BFB60E7
:1026E0000C4AFB681A60FB68143BFB607A68FB6865
:1026F0001A60FB68043BFB60FB686FF002021A6023
:10270000FB68203BFB60FB6818461437BD465DF84C
:10271000047B70471927000080B483B000AF0C4BD6
:102720001B68B3F1FF3F09D04FF0500383F31188CA
:10273000BFF36F8FBFF34F8F7B60FEE74FF0500307
:1027400083F31188BFF36F8FBFF34F8F3B60FEE7BA
:102750000400FF1F00000000000000000000000057
:10276000074B19680868B0E8F04F80F30988BFF399
:102770006F8F4FF0000080F311887047AFF3008037
:102780005C68FF1FAFF30080AFF30080AFF3008001
:1027900006480068006880F3088862B661B6BFF337
:1027A0004F8FBFF36F8F00DF00BF000008ED00E028
:1027B00080B586B000AF3B4B1A683B4B9A4209D1BB
:1027C0004FF0500383F31188BFF36F8FBFF34F8F28
:1027D0003B61FEE7334B1A68344B9A4209D14FF004
:1027E000500383F31188BFF36F8FBFF34F8FFB60EC
:1027F000FEE72F4B7B617B691B78DBB2BB607B699B
:10280000FF221A707B691B78DBB2FB71FB79DBB2AC
:1028100003F05003DAB2274B1A70274B07221A60D5
:1028200009E0254B1B685A1E234B1A60FB79DBB26B
:102830005B00DBB2FB71FB79DBB2DBB25BB2002B7E
:10284000EFDB1D4B1B681A021B4B1A601A4B1B68EF
:1028500003F4E062184B1A60BB68DAB27B691A7045
:10286000164B164A126842F470021A60134B134A50
:10287000126842F070421A60FFF7FAFE104B002215
:102880001A6000F0CDF80F4B0E4A126842F0404239
:102890001A60FFF77DFFFFF73FFF00231846183748
:1028A000BD4680BD00ED00E071C20F4170C20F4116
:1028B00000E400E05468FF1F5868FF1F20ED00E0AF
:1028C0000400FF1F34EF00E080B483B000AF4FF08E
:1028D000500383F31188BFF36F8FBFF34F8F7B607B
:1028E0000E4B1B685A1C0D4B1A600C4B1B68012BBE
:1028F0000ED10B4B1B68DBB2002B09D04FF05003FD
:1029000083F31188BFF36F8FBFF34F8F3B60FEE7F8
:102910000C37BD465DF8047B704700BF0400FF1F05
:1029200004ED00E080B483B000AF104B1B68002BB7
:1029300009D14FF0500383F31188BFF36F8FBFF3BA
:102940004F8F7B60FEE7094B1B685A1E074B1A60CE
:10295000064B1B68002B04D100233B603B6883F3CC
:1029600011880C37BD465DF8047B70470400FF1FDB
:10297000EFF30980BFF36F8F154B1A681EF0100F2D
:1029800008BF20ED108A20E9F04F10604DF8043D9B
:102990004FF0500080F31188BFF34F8FBFF36F8F5C
:1029A00001F036F94FF0000080F3118808BC196877
:1029B0000868B0E8F04F1EF0100F08BFB0EC108AA6
:1029C00080F30988BFF36F8F704700BFAFF30080BB
:1029D0005C68FF1FAFF30080AFF30080AFF30080AF
:1029E00080B582B000AF4FF0500383F31188BFF37E
:1029F0006F8FBFF34F8F7B6001F05CF80346002BB5
:102A000003D0064B4FF080521A6000233B603B68B6
:102A100083F311880837BD4680BD00BF04ED00E098
:102A2000DFF80C00016841F470010160704700009C
:102A300088ED00E080B485B000AFEFF30583FB6064
:102A4000FB680F2B13D9154AFB6813441B78FB72E4
:102A5000134B1B78FA7A9A4209D24FF0500383F352
:102A60001188BFF36F8FBFF34F8F7B60FEE70D4B75
:102A70001B6803F4E0620C4B1B689A4209D94FF0C3
:102A8000500383F31188BFF36F8FBFF34F8F3B6009
:102A9000FEE71437BD465DF8047B7047F0E300E0C5
:102AA0005468FF1F0CED00E05868FF1F80B483B02E
:102AB00000AF78607B6803F108027B685A607B682E
:102AC0004FF0FF329A607B6803F108027B68DA609E
:102AD0007B6803F108027B681A617B6800221A6038
:102AE0000C37BD465DF8047B704700BF80B483B0EF
:102AF00000AF78607B6800221A610C37BD465DF834
:102B0000047B704780B485B000AF786039607B6823
:102B10005B68FB603B68FA685A60FB689A683B68D0
:102B20009A60FB689B683A685A60FB683A689A60EA
:102B30003B687A681A617B681B685A1C7B681A605C
:102B40001437BD465DF8047B704700BF80B485B084
:102B500000AF786039603B681B68BB60BB68B3F14D
:102B6000FF3F03D17B681B69FB600CE07B68083387
:102B7000FB6002E0FB685B68FB60FB685B681A68EF
:102B8000BB689A42F6D9FB685A683B685A603B6852
:102B90005B683A689A603B68FA689A60FB683A68D2
:102BA0005A603B687A681A617B681B685A1C7B68AC
:102BB0001A601437BD465DF8047B704780B485B059
:102BC00000AF78607B681B69FB607B685B687A6834
:102BD00092689A607B689B687A6852685A60FB6862
:102BE0005A687B689A4203D17B689A68FB685A608E
:102BF0007B6800221A61FB681B685A1EFB681A601A
:102C0000FB681B6818461437BD465DF8047B7047A7
:102C100080B584B000AF786039607B68FB60FB688A
:102C2000002B09D14FF0500383F31188BFF36F8F4E
:102C3000BFF34F8FBB60FEE7FFF746FEFB681A68E5
:102C4000FB68DB6BF968096C01FB03F31A44FB6852
:102C50005A60FB6800229A63FB681A68FB689A60F6
:102C6000FB681A68FB68DB6B013BF968096C01FBC8
:102C700003F31A44FB68DA60FB68FF2283F8442000
:102C8000FB68FF2283F845203B68002B14D1FB68CA
:102C90001B69002B1AD0FB681033184601F05EF850
:102CA0000346002B12D00D4B4FF080521A60BFF339
:102CB0004F8FBFF36F8F09E0FB6810331846FFF7A3
:102CC000F5FEFB6824331846FFF7F0FEFFF72AFEF7
:102CD000012318461037BD4680BD00BF04ED00E05B
:102CE00080B58AB002AFF860B9601346FB71FB682B
:102CF000002B09D14FF0500383F31188BFF36F8F7E
:102D0000BFF34F8F3B61FEE7BB68002B02D100236E
:102D1000FB6104E0FB68BA6802FB03F3FB61FB693B
:102D200050331846FFF7D0FAB861BB69002B0AD0C0
:102D3000BB6950337B61FB79BA690092F868B96866
:102D40007A6900F005F8BB6918462037BD4680BD9A
:102D500080B584B000AFF860B9607A60FB70BB6882
:102D6000002B03D1BB69BA691A6002E0BB697A68BB
:102D70001A60BB69FA68DA63BB69BA681A64B86931
:102D80000121FFF745FFBB69FA7883F84C20103723
:102D9000BD4680BD80B58EB000AFF860B9607A6086
:102DA0003B6000237B63FB683B633B6B002B09D1DB
:102DB0004FF0500383F31188BFF36F8FBFF34F8F32
:102DC000BB62FEE7BB68002B03D13B6B1B6C002B87
:102DD00001D1012300E00023002B09D14FF0500363
:102DE00083F31188BFF36F8FBFF34F8F7B62FEE7D2
:102DF0003B68022B03D13B6BDB6B012B01D1012321
:102E000000E00023002B09D14FF0500383F3118819
:102E1000BFF36F8FBFF34F8F3B62FEE701F050F9B6
:102E20000346002B02D17B68002B01D1012300E077
:102E30000023002B09D14FF0500383F31188BFF317
:102E40006F8FBFF34F8FFB61FEE7FFF73DFD3B6BDD
:102E50009A6B3B6BDB6B9A4202D33B68022B29D106
:102E6000386BB9683A6800F03DFAF8623B6B5B6A10
:102E7000002B10D03B6B2433184600F06FFF034645
:102E8000002B13D0414B4FF080521A60BFF34F8F8D
:102E9000BFF36F8F0AE0FB6A002B07D03B4B4FF06C
:102EA00080521A60BFF34F8FBFF36F8FFFF73AFD69
:102EB000012367E07B68002B03D1FFF733FD00237C
:102EC00060E07B6B002B06D107F11403184600F07D
:102ED000A7FF01237B63FFF725FD00F031FDFFF71E
:102EE000F3FC3B6B93F84430DBB25BB2B3F1FF3FD2
:102EF00003D13B6B002283F844203B6B93F84530B1
:102F0000DBB25BB2B3F1FF3F03D13B6B002283F82E
:102F10004520FFF707FD07F114023B1D1046194637
:102F200000F0A0FF0346002B24D1386B00F0D2FA4A
:102F30000346002B18D03B6B03F110027B68104650
:102F4000194600F0BFFE386B00F05EFA00F006FD97
:102F50000346002B15D10D4B4FF080521A60BFF382
:102F60004F8FBFF36F8F0CE0386B00F04DFA00F01D
:102F7000F5FC6AE7386B00F047FA00F0EFFC00233D
:102F800000E062E718463837BD4680BD04ED00E03A
:102F900080B58EB000AFF860B9607A603B60FB68C6
:102FA0003B633B6B002B09D14FF0500383F3118837
:102FB000BFF36F8FBFF34F8F7B62FEE7BB68002BC1
:102FC00003D13B6B1B6C002B01D1012300E00023DC
:102FD000002B09D14FF0500383F31188BFF36F8F9B
:102FE000BFF34F8F3B62FEE73B68022B03D13B6B85
:102FF000DB6B012B01D1012300E00023002B09D161
:103000004FF0500383F31188BFF36F8FBFF34F8FDF
:10301000FB61FEE7FFF70EFDEFF311824FF0500367
:1030200083F31188BFF36F8FBFF34F8FBA617B615A
:10303000BB69FB623B6B9A6B3B6BDB6B9A4202D3C7
:103040003B68022B2CD13B6B93F8453087F82B3033
:10305000386BB9683A6800F045F997F92B30B3F14D
:10306000FF3F12D13B6B5B6A002B16D03B6B2433C6
:10307000184600F073FE0346002B0ED07B68002B31
:103080000BD07B6801221A6007E097F82B300133E0
:10309000DBB2DAB23B6B83F8452001237B6301E0AE
:1030A00000237B63FB6A3B613B6983F311887B6B85
:1030B00018463837BD4680BD80B58EB000AFF86089
:1030C000B9607A603B6000237B63FB683B633B6BCA
:1030D000002B09D14FF0500383F31188BFF36F8F9A
:1030E000BFF34F8F7B62FEE7BB68002B03D13B6BC6
:1030F0001B6C002B01D1012300E00023002B09D120
:103100004FF0500383F31188BFF36F8FBFF34F8FDE
:103110003B62FEE700F0D4FF0346002B02D17B6840
:10312000002B01D1012300E00023002B09D14FF037
:10313000500383F31188BFF36F8FBFF34F8FFB6191
:10314000FEE7FFF7C1FB3B6B9B6BFB62FB6A002B4F
:1031500046D03B6BDB68BB62386BB96800F02EF978
:103160003B68002B21D1FB6A5A1E3B6B9A633B6B79
:103170001B68002B04D101F0BBF802463B6B5A6080
:103180003B6B1B69002B27D03B6B1033184600F0BC
:10319000E5FD0346002B1FD0514B4FF080521A60C3
:1031A000BFF34F8FBFF36F8F16E03B6BBA6ADA60E5
:1031B0003B6B5B6A002B0FD03B6B2433184600F04F
:1031C000CDFD0346002B07D0454B4FF080521A60CF
:1031D000BFF34F8FBFF36F8FFFF7A4FB01237AE09C
:1031E0007B68002B03D1FFF79DFB002373E07B6B13
:1031F000002B06D107F11403184600F011FE01233D
:103200007B63FFF78FFB00F09BFBFFF75DFB3B6BE6
:1032100093F84430DBB25BB2B3F1FF3F03D13B6BB9
:10322000002283F844203B6B93F84530DBB25BB25D
:10323000B3F1FF3F03D13B6B002283F84520FFF73A
:1032400071FB07F114023B1D1046194600F00AFEFF
:103250000346002B31D1386B00F026F90346002BD2
:1032600025D03B6B1B68002B08D1FFF72DFB3B6B78
:103270005B68184600F042FFFFF754FB3B6B03F11D
:1032800024027B681046194600F01CFD386B00F0E4
:10329000BBF800F063FB0346002B1BD1104B4FF033
:1032A00080521A60BFF34F8FBFF36F8F12E0386BFD
:1032B00000F0AAF800F052FB43E7386B00F0A4F8E6
:1032C00000F04CFB386B00F0EFF80346002B01D008
:1032D000002300E035E718463837BD4680BD00BF03
:1032E00004ED00E080B586B000AFF860B9607A60A8
:1032F00000237B61FB689B6B3B61FB681B6C002BB5
:103300000DD1FB681B68002B4FD1FB685B6818462A
:1033100000F06AFF7861FB6800225A6045E07B6834
:10332000002B1AD1FB689A68FB681B6C1046B968C1
:103330001A4605F0D9FAFB689A68FB681B6C1A44B8
:10334000FB689A60FB689A68FB685B689A422CD3BA
:10335000FB681A68FB689A6027E0FB68DA68FB681C
:103360001B6C1046B9681A4605F0BEFAFB68DA68AD
:10337000FB681B6C5B421A44FB68DA60FB68DA6826
:10338000FB681B689A4207D2FB685A68FB681B6C93
:103390005B421A44FB68DA607B68022B05D13B690B
:1033A000002B02D03B69013B3B613B695A1CFB6827
:1033B0009A637B6918461837BD4680BD80B582B0D8
:1033C00000AF786039607B681B6C002B19D07B687C
:1033D000DA687B681B6C1A447B68DA607B68DA68A1
:1033E0007B685B689A4203D37B681A687B68DA6003
:1033F0007B68DA687B681B6C386811461A4605F0F2
:1034000073FA0837BD4680BD80B584B000AF7860E0
:10341000FFF75AFA7B6893F84530FB7312E07B683C
:103420005B6A002B0AD07B682433184600F096FCB8
:103430000346002B03D000F073FD00E006E0FB7BA9
:10344000013BFB7397F90F30002BE8DC7B68FF2210
:1034500083F84520FFF766FAFFF736FA7B6893F8A2
:103460004430BB7312E07B681B69002B0DD07B6876
:103470001033184600F072FC0346002B01D000F018
:103480004FFDBB7B013BBB7300E003E097F90E30BF
:10349000002BE8DC7B68FF2283F84420FFF742FA28
:1034A0001037BD4680BD00BF80B584B000AF7860E6
:1034B000FFF70AFA7B689B6B002B02D10123FB60AC
:1034C00001E00023FB60FFF72DFAFB681846103778
:1034D000BD4680BD80B584B000AF7860FFF7F4F9D9
:1034E0007B689A6B7B68DB6B9A4202D10123FB609D
:1034F00001E00023FB60FFF715FAFB681846103760
:10350000BD4680BD80B485B000AF786039600023CF
:10351000FB6014E00E4BFA6853F83230002B0BD1ED
:103520000B4BFA68396843F83210094AFB68DB0034
:1035300013447A685A6005E0FB680133FB60FB685E
:10354000072BE7D91437BD465DF8047B704700BFF1
:10355000A86DFF1F80B586B000AFF860B9607A60D3
:10356000FB687B61FFF7B0F97B6993F84430DBB20D
:103570005BB2B3F1FF3F03D17B69002283F84420A3
:103580007B6993F84530DBB25BB2B3F1FF3F03D107
:103590007B69002283F84520FFF7C4F97B699B6BA8
:1035A000002B06D17B6924331846B9687A6800F08D
:1035B000ABFB7869FFF728FF1837BD4680BD00BF19
:1035C00080B58CB004AFF860B9603B601346FB80F7
:1035D000FB889B001846FEF777FE78617B69002B1D
:1035E0000ED06C20FEF770FEF861FB69002B03D053
:1035F000FB697A691A6305E07869FEF727FF01E045
:103600000023FB61FB69002B14D0FB88BA6A00928F
:10361000FA6A0192FA69029200220392F868B96884
:103620001A463B6800F00EF8F86900F09FF8012395
:10363000BB6102E04FF0FF33BB61BB691846203726
:10364000BD4680BD80B588B000AFF860B9607A60D3
:103650003B603B6B1A6B7B689B001046A5211A46AA
:1036600005F04BF93B6B1A6B7B6803F18043013B20
:103670009B001344BB61BB6923F00703BB61BB69BB
:1036800003F00703002B09D04FF0500383F3118898
:10369000BFF36F8FBFF34F8F7B61FEE70023FB61AA
:1036A00012E0BA68FB6913441A78396BFB690B4462
:1036B00030331A71BA68FB6913441B78002B00D1B0
:1036C00005E0FB690133FB61FB69092BE9D93B6B21
:1036D000002283F83D20BB6A042B01D90423BB627E
:1036E0003B6BBA6ADA623B6BBA6A9A643B6B002244
:1036F000DA643B6B04331846FFF7F8F93B6B183379
:103700001846FFF7F3F93B6B3A6B1A61BB6AC3F1DA
:1037100005023B6B9A613B6B3A6B5A620023FB617B
:1037200008E03B6BFA691432002143F82210FB6970
:103730000133FB61FB69042BF3D93B6B00225A6612
:103740003B6B002283F86820B869F9683A68FEF795
:10375000AFFF02463B6B1A60FB6A002B02D0FB6A8C
:103760003A6B1A602037BD4680BD00BF80B582B07D
:1037700000AF7860FFF7A8F82C4B1B685A1C2B4B46
:103780001A602B4B1B68002B09D1294B7A681A60F1
:10379000264B1B68012B10D100F0E6FB0DE0254BFA
:1037A0001B68002B09D1224B1B68DA6A7B68DB6A35
:1037B0009A4202D81E4B7A681A601F4B1B685A1C2B
:1037C0001D4B1A601C4B1A687B681A647B68DB6AA5
:1037D00001229A40194B1B681A43184B1A607B68E8
:1037E000DA6A13469B0013449B00154A1A447B680F
:1037F000043310461946FFF785F9FFF793F80D4B90
:103800001B68002B0ED00A4B1B68DA6A7B68DB6AE8
:103810009A4207D20B4B4FF080521A60BFF34F8F82
:10382000BFF36F8F0837BD4680BD00BF3469FF1FEF
:103830005C68FF1F4069FF1F5069FF1F3C69FF1F45
:103840006068FF1F04ED00E080B584B000AF7860D1
:103850000023FB607B68002B16D0124B1B68002BEB
:1038600009D04FF0500383F31188BFF36F8FBFF37C
:103870004F8FBB60FEE700F063F87868002100F02E
:103880006BFE00F06BF8F860FB68002B07D1064B6D
:103890004FF080521A60BFF34F8FBFF36F8F103716
:1038A000BD4680BD5C69FF1F04ED00E080B586B0B9
:1038B00002AF002300931C4B01931C481C495A2261
:1038C0000023FFF77DFEF860FB68012B02D100F0BA
:1038D000A7FEF860FB68012B15D14FF0500383F36E
:1038E0001188BFF36F8FBFF34F8FBB60114B4FF049
:1038F000FF321A60104B01221A60104B00221A602E
:10390000FEF756FF0DE0FB68B3F1FF3F09D14FF022
:10391000500383F31188BFF36F8FBFF34F8F7B602A
:10392000FEE71037BD4680BD5869FF1F393F0000D4
:103930007C8900005469FF1F4069FF1F3869FF1F21
:1039400080B400AF044B1B685A1C034B1A60BD4681
:103950005DF8047B704700BF5C69FF1F80B584B0D1
:1039600000AF0023FB600023BB60414B1B68002BB2
:1039700009D14FF0500383F31188BFF36F8FBFF36A
:103980004F8F3B60FEE7FEF79FFF394B1B685A1EC7
:10399000374B1A60364B1B68002B61D1354B1B68C7
:1039A000002B5DD02EE0344BDB68DB68FB60FB68EE
:1039B00018331846FFF702F9FB6804331846FFF77F
:1039C000FDF8FB68DB6A01229A402C4B1B681A4306
:1039D0002A4B1A60FB68DA6A13469B0013449B006B
:1039E000274A1A44FB68043310461946FFF78AF841
:1039F000FB68DA6A234B1B68DB6A9A4202D3224BCC
:103A000001221A601C4B1B68002BCCD1FB68002BD9
:103A100001D000F031FB1D4B1B687B607B68002BE5
:103A200010D000F047F80346002B02D0164B0122BD
:103A30001A607B68013B7B607B68002BF1D1134BE4
:103A400000221A60104B1B68002B09D00123BB60B9
:103A50000F4B4FF080521A60BFF34F8FBFF36F8F41
:103A6000FEF760FFBB6818461037BD4680BD00BF3B
:103A70005C69FF1F3469FF1FF468FF1F3C69FF1F6B
:103A80006068FF1F5C68FF1F4869FF1F4469FF1FD4
:103A900004ED00E080B483B000AF054B1B687B6091
:103AA0007B6818460C37BD465DF8047B704700BF45
:103AB0003869FF1F80B586B000AF00237B61494B9A
:103AC0001B68002B7DD1484B1B6801333B61464B83
:103AD0003A691A603B69002B1FD1444B1B681B6875
:103AE000002B09D04FF0500383F31188BFF36F8F81
:103AF000BFF34F8F3B60FEE73C4B1B68FB603C4BCA
:103B00001A683A4B1A603A4BFA681A60394B1B68CC
:103B10005A1C384B1A6000F0AFFA374B1B683A69F1
:103B20009A424DD3314B1B681B68002B01D10123F6
:103B300000E00023002B04D02F4B4FF0FF321A601F
:103B40003EE02A4B1B68DB68DB68BB60BB685B68D8
:103B50007B603A697B689A4203D2274B7A681A6085
:103B60002EE0BB6804331846FFF728F8BB689B6A51
:103B7000002B04D0BB6818331846FFF71FF8BB684A
:103B8000DB6A01229A401D4B1B681A431B4B1A60CB
:103B9000BB68DA6A13469B0013449B00184A1A4418
:103BA000BB68043310461946FEF7ACFFBB68DA6AFF
:103BB000144B1B68DB6A9A4201D301237B61B1E796
:103BC00004E0114B1B685A1C0F4B1A600F4B1B680B
:103BD000002B01D001237B617B6918461837BD4655
:103BE00080BD00BF5C69FF1F3869FF1FEC68FF1FC5
:103BF000F068FF1F4C69FF1F5469FF1F3C69FF1FDE
:103C00006068FF1F5C68FF1F4469FF1F4869FF1F52
:103C100080B487B000AF264B1B68002B03D0254B28
:103C200001221A603EE0234B00221A60224B1B68DF
:103C3000FB60FB68B3FA83F3FB72FB7AC3F11F03EB
:103C40007B611E497A6913469B0013449B000B4419
:103C50001B68002B09D14FF0500383F31188BFF389
:103C60006F8FBFF34F8F7B60FEE77A6913469B002F
:103C700013449B00114A13443B613B695B685A68DB
:103C80003B695A603B695A683B6908339A4204D1E0
:103C90003B695B685A683B695A603B695B68DA68F4
:103CA000074B1A601C37BD465DF8047B704700BFA8
:103CB0005C69FF1F4869FF1F3C69FF1F6068FF1FA9
:103CC0005C68FF1F80B584B000AF786039607B68A6
:103CD000002B09D14FF0500383F31188BFF36F8F8E
:103CE000BFF34F8FFB60FEE7064B1B681833786805
:103CF0001946FEF72BFF3868012100F02DFC103724
:103D0000BD4680BD5C68FF1F80B586B000AFF8601F
:103D1000B9607A60FB68002B09D14FF0500383F340
:103D20001188BFF36F8FBFF34F8F7B61FEE70A4BA4
:103D30001B681833F8681946FEF7E4FE7B68002B11
:103D400002D04FF0FF33BB60B868796800F004FC24
:103D50001837BD4680BD00BF5C68FF1F80B586B0C8
:103D600000AF78607B68DB68DB683B613B69002BF8
:103D700009D14FF0500383F31188BFF36F8FBFF366
:103D80004F8FFB60FEE73B6918331846FEF716FFBE
:103D90001D4B1B68002B1CD13B6904331846FEF7F2
:103DA0000DFF3B69DB6A01229A40184B1B681A43DE
:103DB000164B1A603B69DA6A13469B0013449B005A
:103DC000134A1A443B69043310461946FEF79AFE1B
:103DD00005E03B6918330F481946FEF793FE3B692F
:103DE000DA6A0D4B1B68DB6A9A4205D901237B61B5
:103DF0000A4B01221A6001E000237B617B691846AF
:103E00001837BD4680BD00BF5C69FF1F3C69FF1FBE
:103E10006068FF1FF468FF1F5C68FF1F4869FF1F91
:103E200080B485B000AF78607B68002B09D14FF07B
:103E3000500383F31188BFF36F8FBFF34F8FFB6085
:103E4000FEE7064B1A687B681A60054B1A687B68A8
:103E50005A601437BD465DF8047B70474C69FF1FFC
:103E60003869FF1F80B586B000AF786039607B6825
:103E7000002B09D14FF0500383F31188BFF36F8FEC
:103E8000BFF34F8FFB60FEE73B68002B09D14FF07B
:103E9000500383F31188BFF36F8FBFF34F8FBB6065
:103EA000FEE7FEF711FD1C4B1B683B613B681B687E
:103EB000B3F1FF3F02D100237B6126E07B681A68E3
:103EC000164B1B689A4207D07B685A683B699A4236
:103ED00002D801237B6118E07B685B683A69D21ADB
:103EE0003B681B689A420ED23B681A687B68596827
:103EF0003B69CB1A1A443B681A607868FFF790FF59
:103F000000237B6101E001237B61FEF70BFD7B69F0
:103F100018461837BD4680BD3869FF1F4C69FF1F22
:103F200080B400AF034B01221A60BD465DF8047BEC
:103F3000704700BF4869FF1F80B582B000AF78604E
:103F400000F050F8064B1B68012B07D9054B4FF0CA
:103F500080521A60BFF34F8FBFF36F8FF0E700BF3F
:103F60006068FF1F04ED00E080B582B000AF002361
:103F70007B600CE07A6813469B0013449B00114A57
:103F800013441846FEF792FD7B6801337B607B6823
:103F9000042BEFD90C48FEF789FD0C48FEF786FD8F
:103FA0000B48FEF783FD0B48FEF780FD0A48FEF73D
:103FB0007DFD0A4B044A1A60094B044A1A6008370F
:103FC000BD4680BD6068FF1FC468FF1FD868FF1F23
:103FD000F468FF1F0869FF1F2069FF1FEC68FF1FBF
:103FE000F068FF1F80B582B000AF28E0FFF7A8FCA3
:103FF000164B1B68002B14BF00230123DBB27B6030
:10400000FFF7ACFC7B68002B19D1FEF75DFC0F4B72
:10401000DB68DB683B603B6804331846FEF7CEFD87
:104020000B4B1B685A1E0A4B1A600A4B1B685A1E20
:10403000084B1A60FEF776FC386800F00DF8054B67
:104040001B68002BD2D10837BD4680BD0869FF1F11
:104050003469FF1F1C69FF1F80B582B000AF786014
:104060007B681B6B1846FEF7F1F97868FEF7EEF9EE
:104070000837BD4680BD00BF80B483B000AF0E4B93
:104080001B681B68002B01D1012300E00023002BDB
:1040900004D00A4B4FF0FF321A6008E0064B1B6851
:1040A000DB68DB687B607B685A68044B1A600C37FE
:1040B000BD465DF8047B7047EC68FF1F5469FF1F25
:1040C00080B483B000AF0B4B1B68002B02D10123DF
:1040D0007B6008E0084B1B68002B02D102237B6049
:1040E00001E000237B607B6818460C37BD465DF815
:1040F000047B70474069FF1F5C69FF1F80B584B077
:1041000000AF78607B68FB607B68002B62D0FB6847
:10411000DA6A324B1B68DB6A9A425BD2FB689B69A6
:10412000002B06DB2D4B1B68DB6AC3F10502FB6825
:104130009A61FB685969FB68DA6A13469B0013446D
:104140009B00274A1344994201D1012300E0002338
:10415000002B3AD0FB6804331846FEF72FFD0346C8
:10416000002B15D1FB68DA6A1D4913469B001344E6
:104170009B000B441B68002B0AD1FB68DB6A012201
:1041800002FA03F3DA43174B1B681A40154B1A6007
:10419000124B1B68DA6AFB68DA62FB68DB6A012291
:1041A0009A40104B1B681A430E4B1A60FB68DA6A80
:1041B00013469B0013449B00094A1A44FB680433CE
:1041C00010461946FEF79EFC04E0044B1B68DA6AB1
:1041D000FB68DA621037BD4680BD00BF5C68FF1F18
:1041E0006068FF1F3C69FF1F80B586B000AF786034
:1041F0007B683B6100237B617B68002B6CD0394B73
:104200001B683A699A4209D04FF0500383F3118832
:10421000BFF36F8FBFF34F8FFB60FEE73B69DB6C33
:10422000002B09D14FF0500383F31188BFF36F8F38
:10423000BFF34F8FBB60FEE73B69DB6C5A1E3B69E7
:10424000DA643B69DA6A3B699B6C9A4244D03B6909
:10425000DB6C002B40D13B6904331846FEF7AEFC03
:104260000346002B15D13B69DA6A1F4913469B00B0
:1042700013449B000B441B68002B0AD13B69DB6A8B
:10428000012202FA03F3DA43184B1B681A40174B5A
:104290001A603B699A6C3B69DA623B69DB6AC3F17D
:1042A00005023B699A613B69DB6A01229A400F4B28
:1042B0001B681A430D4B1A603B69DA6A13469B0070
:1042C00013449B00084A1A443B69043310461946BC
:1042D000FEF718FC01237B617B6918461837BD4641
:1042E00080BD00BF5C68FF1F6068FF1F3C69FF1F47
:1042F00080B400AF074B1B68002B04D0054B1B6834
:10430000DA6C0132DA64034B1B681846BD465DF86F
:10431000047B70475C68FF1F80B586B000AFF86013
:10432000B9607A603B60FEF7CFFA264B1B6893F8C2
:104330006830DBB2022B1AD0224B1B68596EFA6828
:10434000D2430A405A661F4B1B68012283F868203B
:104350003B68002B0BD03868012100F0FDF81A4BA8
:104360004FF080521A60BFF34F8FBFF36F8FFEF78D
:10437000D9FAFEF7A9FA7B68002B04D0114B1B6811
:104380005A6E7B681A600F4B1B6893F86830DBB27B
:10439000012B02D100237B6108E00A4B1B68596E98
:1043A000BA68D2430A405A6601237B61054B1B68F9
:1043B000002283F86820FEF7B5FA7B6918461837A3
:1043C000BD4680BD5C68FF1F04ED00E080B58EB087
:1043D00000AFF860B9603B601346FB7101237B635B
:1043E000FB68002B09D14FF0500383F31188BFF312
:1043F0006F8FBFF34F8F7B62FEE7FEF71BFBFB68FF
:104400003B63EFF311824FF0500383F31188BFF346
:104410006F8FBFF34F8F3A62FB613B6AFB623B6871
:10442000002B03D03B6B5A6E3B681A603B6B93F8D2
:10443000683087F82B303B6B022283F86820FB79C9
:10444000042B29D801A252F823F000BF99440000A0
:10445000614400006F4400007B440000834400007E
:104460003B6B5A6EBB681A433B6B5A6614E03B6B5E
:104470005B6E5A1C3B6B5A660EE03B6BBA685A6621
:104480000AE097F82B30022B03D03B6BBA685A66D0
:1044900001E000237B6300BF97F82B30012B45D14F
:1044A0003B6B9B6A002B09D04FF0500383F31188BC
:1044B000BFF36F8FBFF34F8FBB61FEE7204B1B68CD
:1044C000002B1CD13B6B04331846FEF777FB3B6B8C
:1044D000DB6A01229A401B4B1B681A43194B1A6076
:1044E0003B6BDA6A13469B0013449B00164A1A443E
:1044F0003B6B043310461946FEF704FB05E03B6BAB
:10450000183312481946FEF7FDFA3B6BDA6A104B76
:104510001B68DB6A9A4209D93B6C002B03D03B6CC9
:1045200001221A6002E00B4B01221A60FB6A7B61D8
:104530007B6983F311887B6B18463837BD4680BD95
:104540005C69FF1F3C69FF1F6068FF1FF468FF1F65
:104550005C68FF1F4869FF1F80B584B000AF7860BA
:104560003960284B1B68FB60274B1B6804331846D7
:10457000FEF724FB0346002B0BD1234B1B68DB6AA1
:10458000012202FA03F3DA43204B1B681A401F4B47
:104590001A607B68B3F1FF3F0AD13B68002B07D05C
:1045A000194B1B6804331A481946FEF7ABFA26E08C
:1045B000FA687B681344BB60134B1B68BA685A6087
:1045C000BA68FB689A4209D2124B1A680E4B1B68F4
:1045D000043310461946FEF7B9FA10E00E4B1A687C
:1045E000094B1B68043310461946FEF7AFFA0B4B14
:1045F0001B68BA689A4202D2084BBA681A60103730
:10460000BD4680BD3869FF1F5C68FF1F3C69FF1F06
:104610002069FF1FF068FF1FEC68FF1F5469FF1F30
:1046200080B584B002AF00237B6000F0B3FA104B7A
:104630001B68002B0AD0022300930E4B01930E48F7
:104640000E49B4220023FEF7BBFF78607B68002B85
:1046500009D14FF0500383F31188BFF36F8FBFF37D
:104660004F8F3B60FEE77B6818460837BD4680BD2C
:104670009069FF1F9469FF1FA5470000848900000F
:1046800080B58AB000AFF860B9607A603B60002303
:104690007B62FB68002B09D14FF0500383F3118834
:1046A000BFF36F8FBFF34F8F3B62FEE71C4B1B685E
:1046B000002B30D0BB683B617B687B61FB68BB61D2
:1046C000BB68052B1CDCFFF7FBFC0346022B0BD160
:1046D000134B1A6807F11003104619463A6B002372
:1046E000FEF758FB786216E00D4B1A6807F11003CD
:1046F0001046194600220023FEF74CFB78620AE0C0
:10470000074B1A6807F11003104619463A68002350
:10471000FEF73EFC78627B6A18462837BD4680BDAE
:104720009069FF1F80B588B002AF786039601C4B7C
:104730001B68DB68DB687B617B6904331846FEF726
:104740003DFA7B69DB69012B22D17B699A697B6821
:104750001344786919463A687B6800F0C7F8034645
:10476000002B15D000230093786900217A6800237C
:10477000FFF786FF38613B69002B09D14FF05003EA
:1047800083F31188BFF36F8FBFF34F8FFB60FEE79A
:104790007B695B6A786998471837BD4680BD00BF62
:1047A0008869FF1F80B584B000AF786007F1080307
:1047B000184600F057F8F860BB68F868194600F032
:1047C00003F800F0D5F8F1E780B584B000AF786069
:1047D0003960FFF7B5F807F10803184600F066F8EE
:1047E000F860BB68002B31D13B68002B0AD17A6896
:1047F000FB689A4206D8FFF7B1F87868F968FFF7C6
:1048000091FF25E03B68002B08D0134B1B681B6809
:10481000002B14BF00230123DBB23B600F4B1A684F
:104820007968FB68CB1A104619463A68FEF792FE83
:10483000FFF794F80346002B0AD1094B4FF0805242
:104840001A60BFF34F8FBFF36F8F01E0FFF786F859
:104850001037BD4680BD00BF8C69FF1F9069FF1FE8
:1048600004ED00E080B485B000AF78600E4B1B68AB
:104870001B68002B14BF00230123DBB21A467B68A0
:104880001A607B681B68002B05D1074B1B68DB682F
:104890001B68FB6001E00023FB60FB6818461437CF
:1048A000BD465DF8047B70478869FF1F80B584B002
:1048B00000AF7860FFF7EEF8F8600B4B1B68FA6802
:1048C0009A4205D200F006F97B6801221A6002E0E4
:1048D0007B6800221A60044BFA681A60FB6818466D
:1048E0001037BD4680BD00BF9869FF1F80B586B0F8
:1048F00000AFF860B9607A603B6000237B61FB68C1
:10490000BA685A60FB68FA681A61BA687B689A42AA
:1049100012D87A683B68D21AFB689B699A4202D324
:1049200001237B611BE0104B1A68FB6804331046BF
:104930001946FEF70BF912E07A683B689A4206D2F4
:10494000BA683B689A4202D301237B6107E0074BB8
:104950001A68FB68043310461946FEF7F7F87B69BE
:1049600018461837BD4680BD8C69FF1F8869FF1F38
:1049700080B58EB002AF9AE07B68002B18DA3B1D41
:104980000433FB62FB6A002B09D14FF0500383F321
:104990001188BFF36F8FBFF34F8FFB61FEE7FB6A98
:1049A0001B68FA6A5168FA6A926808461146984785
:1049B0007B68002B7BDBFB68BB62BB6A5B69002BFF
:1049C00004D0BB6A04331846FEF7F8F83B46184695
:1049D000FFF76CFF78627B68092B67D801A252F859
:1049E00023F000BF0D4A00000D4A00000D4A0000F0
:1049F000AD4A00006D4A0000A54A00000D4A0000C3
:104A00000D4A0000AD4A00006D4A0000BA68BB6A5A
:104A10009B691A44BB68B86A11467A6AFFF766FF59
:104A20000346002B21D0BB6A5B6AB86A9847BB6A11
:104A3000DB69012B19D1BA68BB6A9B691344002258
:104A40000092B86A00211A460023FFF719FE386267
:104A50003B6A002B09D14FF0500383F31188BFF359
:104A60006F8FBFF34F8FBB61FEE720E0BA68BB6A70
:104A70009A61BB6A9B69002B09D14FF0500383F305
:104A80001188BFF36F8FBFF34F8F7B61FEE7BB6A67
:104A90009A697B6A1344B86A19467A6A7B6AFFF797
:104AA00025FF04E0B86AFDF7D1FC00E000BF084B29
:104AB0001A683B1D1046194600220023FEF7FCFA37
:104AC0000346002B7FF458AF3037BD4680BD00BF92
:104AD0009069FF1F80B588B002AF44E02B4B1B6884
:104AE000DB681B687B61294B1B68DB68DB683B610B
:104AF0003B6904331846FEF761F83B695B6A386925
:104B000098473B69DB69012B2DD13B699A697B6929
:104B10001344FB60FA687B699A420ED93B69FA68D4
:104B20005A603B693A691A61184B1A683B69043349
:104B300010461946FEF70AF815E00023009338697D
:104B400000217A690023FFF79BFDB860BB68002B4A
:104B500009D14FF0500383F31188BFF36F8FBFF378
:104B60004F8F3B60FEE7094B1B681B68002BB5D1DC
:104B7000064B1B687B60064B1A68044B1A60044B9B
:104B80007A681A601837BD4680BD00BF8869FF1F6C
:104B90008C69FF1F80B500AFFDF796FE124B1B68B6
:104BA000002B1DD11148FDF781FF1148FDF77EFF55
:104BB000104B0E4A1A60104B0D4A1A600A20102141
:104BC0000022FEF78DF80246074B1A60064B1B6861
:104BD000002B05D0044B1B6818460849FEF792FCD1
:104BE000FDF7A0FE80BD00BF9069FF1F6069FF1F39
:104BF0007469FF1F8869FF1F8C69FF1F8C89000083
:104C000080B483B000AF7860074B074A126822F483
:104C100040217A68920402F440220A431A600C3759
:104C2000BD465DF8047B70470070044080B483B0DB
:104C300000AF78600A490A4B03F5805304331B68C0
:104C400023F440327B681B0403F440331A4301F51C
:104C5000805304331A600C37BD465DF8047B7047FF
:104C60000070044080B485B000AF786039607B6824
:104C70001B78FB73FB7B03F05F03FB733B681A78C5
:104C8000FB7B1343FB737B68FA7B1A701437BD46BA
:104C90005DF8047B704700BF80B485B000AF7860DA
:104CA0000B46FB707B681B78FB73FB7B23F00F03C9
:104CB000FB73FA7BFB781343FB737B68FA7B1A70F8
:104CC0001437BD465DF8047B704700BF80B582B0E5
:104CD00000AF194B1B7BDBB203F00303012B12D097
:104CE000012B02D3022B1CD01EE0144B1B68002B9F
:104CF00005D11348D421134A134B00F0FBFC0F4B92
:104D00001B687B6013E0114B1B68002B05D10C481E
:104D1000D9210C4A0E4B00F0EDFC0C4B1B687B605C
:104D200005E00C4B7B6002E000237B6000BF7B68EA
:104D300018460837BD4680BD00400640EC6DFF1F99
:104D40009489000070970000AC890000E86DFF1F97
:104D5000B8890000006CDC0280B582B000AFFFF7BC
:104D6000B5FF78607B68002B01D17B684EE0294B52
:104D70001B78DBB203F03803DB08FB70FB787A6842
:104D800022FA03F37B60234B5B78DBB203F0300342
:104D90001B09BB701F4B1B7BDBB203F003037B7053
:104DA000BB78002B02D07B78002B02D07B78022BC3
:104DB0002BD1FB78072B25D801A151F823F000BF98
:104DC000E14D0000E14D0000E14D0000E14D00002B
:104DD000E14D0000E14D0000E94D0000F74D0000FD
:104DE0007B685B097B6010E07A680B4BA3FB0213C6
:104DF0001B097B6009E07A68084BA3FB0213DB0800
:104E00007B6002E000237B6000BF7B6818460837A8
:104E1000BD4680BD00400640CDCCCCCCABAAAAAAF2
:104E200080B400AF0C4B9B79DBB203F00103002B85
:104E300002D10A4B1B6809E0094B1A68064B1B7A22
:104E4000DBB203F00E035B0822FA03F31846BD46FB
:104E50005DF8047B704700BF004006400800FF1F5C
:104E60000C00FF1F80B500AF074B9B79DBB203F04E
:104E700010031B09002B03D1FFF76EFF034601E06F
:104E8000024B1B68184680BD004006400800FF1F0B
:104E900080B500AFFFF71AFF0346184680BD00BF7C
:104EA00080B485B000AF78607A6849F697039A427B
:104EB00002D80023FB7308E07A68074B9A4202D8B5
:104EC0000123FB7301E00223FB73FB7B18461437BD
:104ED000BD465DF8047B704700127A0080B500AFD4
:104EE0000B4B1B78DBB2DBB25BB2002B0DDA094B4C
:104EF0001B68002B06D1084840F26511074A084B91
:104F000000F0F8FB034B1B6800E00023184680BD4F
:104F100000500640EC6DFF1F948900008897000048
:104F2000AC89000080B582B000AF194B1B6803F458
:104F300040239B0C022B0FD0032B1CD0002B1ED127
:104F4000FFF7CCFF0346B3F5004F02D14FF4004307
:104F500000E000237B6015E00E4B1B68002B06D1A0
:104F60000D4840F279110D4A0D4B00F0C3FB094B7F
:104F70001B687B6006E04FF47A737B6002E00023DD
:104F80007B6000BF7B6818460837BD4680BD00BF08
:104F900000700440E86DFF1F94890000A097000096
:104FA000B889000080B582B000AF114B03F5805383
:104FB00004331B6803F440331B0C012B08D0012B76
:104FC00002D3032B08D00AE000F004F9786009E06E
:104FD00000F064F9786005E0064B7B6002E0002396
:104FE0007B6000BF7B6818460837BD4680BD00BFA8
:104FF00000700440006CDC0280B584B000AF034652
:10500000FB71FB79132B00F28C8001A252F823F084
:1050100061500000615000007D5000009D50000074
:10502000BD50000023510000DD500000E55000009D
:10503000ED5000002351000023510000F550000006
:10504000FD500000055100000D51000023510000EB
:105050002351000023510000155100001B51000096
:1050600000F086F80246334B03F5825304331B6885
:105070001B0F0133B2FBF3F3FB6055E000F078F84F
:1050800002462C4B03F5825304331B6803F0706314
:105090001B0E0133B2FBF3F3FB6045E000F068F850
:1050A0000246244B03F5825304331B6803F4700358
:1050B0001B0D0133B2FBF3F3FB6035E000F058F851
:1050C00002461C4B03F5825304331B6803F4702320
:1050D0001B0C0133B2FBF3F3FB6025E0FFF762FF2B
:1050E000F86021E0FFF71EFFF8601DE0FFF7F6FE15
:1050F000F86019E000F0BAF8F86015E000F0A4F8E4
:10510000F86011E000F066F8F8600DE000F0C6F815
:10511000F86009E0084BFB6006E04FF47A73FB602F
:1051200002E00023FB6000BFFB6818461037BD4655
:1051300080BD00BF00700440006CDC0280B582B00E
:1051400000AF7860094B7A68526803F582530433E4
:105150001A607B681B781846FFF768FD7B685B78F0
:105160001846FFF74DFD0837BD4680BD007004406E
:1051700080B582B000AF164B9B79DBB203F00C0315
:105180009B083B603B68032B1AD801A252F823F01E
:10519000A9510000B1510000B9510000A151000017
:1051A00000F07CF878600EE000F014F878600AE017
:1051B000FFF736FE786006E0FFF788FD786002E0D2
:1051C00000237B6000BF7B6818460837BD4680BD62
:1051D0000040064080B582B000AF194B5B78DBB26F
:1051E00003F00203002B06D1154B9B79DBB203F0D1
:1051F0002003002B01D000231DE0FFF733FE786071
:105200007B68002B01D17B6815E00D4BDB78DBB2AE
:1052100003F060035B09FB70094BDB78DBB2DB0951
:10522000BB70F978BA78074B49000A4433F812305A
:105230007A6802FB03F318460837BD4680BD00BFFD
:1052400000400640B897000080B500AF064B1B78C1
:10525000DBB203F00203002B01D1002302E0FFF7D1
:10526000DFFD0346184680BD0040064080B582B091
:1052700000AFFFF7F7FD78607B68002B08D0FFF7E1
:1052800077FF0346DA087B689A4201D37B6800E027
:10529000002318460837BD4680BD00BF80B582B0E8
:1052A00000AF184B9B79DBB203F04003002B01D118
:1052B000002322E0FFF7ECFD78607B68002B06D12D
:1052C000114840F27D21114A114B00F013FA0D4BA9
:1052D0001B79DBB203F01F0301337A68B2FBF3F3EF
:1052E0007B60084B5B79DBB203F01F0303F118020C
:1052F0007B6802FB03F37B607B6818460837BD467A
:1053000080BD00BF0040064094890000C89700009F
:10531000C889000080B485B000AF0346FB71204B04
:105320001B7BDBB203F00302FB799A4202D001231C
:10533000FB7301E00023FB73194B194A127BD2B2B5
:1053400022F00302D1B2FA7902F00302D2B20A4388
:10535000D2B21A73FB79002B0ED1114B5B78DBB202
:1053600003F00403002B07D000BF0D4B9B79DBB289
:1053700003F00203002BF8D0FB7B002B09D040F296
:10538000DC53BB6000E000BFBB685A1EBA60002B54
:10539000F9D1002318461437BD465DF8047B7047E9
:1053A0000040064080B485B000AF13460246FA7153
:1053B0000A46BA717B713B4B9B79DBB203F00C035D
:1053C0009B08FB60374B9B79DBB203F00103FB7258
:1053D000344B1B7ADBB203F00E035B08BB727A79A5
:1053E000BB7A9A422CD0FB7A012B19D1FB68012B96
:1053F00006D02C4B1B78DBB203F00203002B0FD03E
:10540000284B284A5278D2B222F00102D2B25A7006
:1054100000BF244B9B79DBB203F00103002BF8D1D2
:10542000204B204A127AD2B222F02F02D1B27A79DE
:105430005200D2B202F00E02D2B20A43D2B21A72B3
:10544000184B184A5278D2B222F00102D1B2BA797E
:1054500002F00102D2B20A43D2B25A70114B114A81
:105460001278D2B222F00302D1B2FA790A43D2B250
:105470001A70FB68012B04D0FB7903F00203002BA8
:1054800008D000BF074B9B79DBB203F00102BB7968
:105490009A42F7D1002318461437BD465DF8047BC5
:1054A000704700BF0040064080B584B000AF786010
:1054B0007B68002B06D11D4840F247311C4A1D4B2A
:1054C00000F018F90023FB737B685B7803F01F037F
:1054D000DAB2FB7B1343FB73174BFA7B1A71164B43
:1054E000154A5279D2B222F01F02D1B27A6892786C
:1054F00002F01F02D2B20A43D2B25A710E4B0E4AC8
:105500001279D1B27A6812780A43D2B242F04002DC
:10551000D2B21A7100BF084B9B79DBB203F0400393
:10552000002BF8D01037BD4680BD00BF9489000025
:10553000DC970000D48900000040064080B584B0AC
:1055400000AF78607B681B681846FFF7A9FC03462C
:10555000FB737B681B791A481946FFF79DFB7B6834
:10556000063317481946FFF77DFB164B154A52784C
:10557000D2B222F03C02D1B2FA7B1201D2B202F0D6
:105580003002D2B20A43D1B27A6852790A43D2B217
:105590005A707B685B79002B0ED0094B1B78DBB20D
:1055A000DBB25BB2002B07DA00BF064B9B79DBB2A4
:1055B00003F00203002BF8D01037BD4680BD00BFBA
:1055C000005006400040064080B582B000AF034660
:1055D0003960FB713B68002B06D1254840F2BD5174
:1055E000244A254B00F086F8244B244A5278D2B244
:1055F00022F00202D2B25A70204B204A1278D2B264
:1056000002F03B02D2B262F07F02D2B21A7000BF47
:105610001A4B9B79DBB203F01C03082BF8D1174B14
:10562000164A5279D2B222F04002D2B25A7100BF69
:10563000124B9B79DBB203F02003002BF8D13868C2
:10564000FFF732FF0D4B0D4A5279D2B242F04002C1
:10565000D2B25A7100BF094B9B79DBB203F0200331
:10566000002BF8D0002318460837BD4680BD00BF88
:1056700094890000F0970000D489000000400640A3
:1056800080B582B000AF0B463A600246FA71BB713A
:105690003B68002B06D1134840F25C61124A134B61
:1056A00000F028F8FB791846FFF734FEBB7918465E
:1056B0003968FFF789FF0E4B0D4A1278D2B202F01B
:1056C0003F02D2B21A7000BF094B9B79DBB203F0E4
:1056D0000C039B08032BF7D1002318460837BD465F
:1056E00080BD00BF9489000004980000D4890000A8
:1056F0000040064080B586B002AFF860B9607A60BD
:105700003B607B68009304483968FA68BB68FAF725
:10571000D5FF00BEFDE700BFDC89000080B485B086
:1057200000AF78607B681B0C03F1804303F58E2388
:10573000FB60FB68FA6811687A6892B2012000FA8F
:1057400002F20A431A601437BD465DF8047B7047C5
:1057500080B584B000AF78600023FB600AE00E4B98
:10576000FA6853F822207B689A4200D105E0FB6872
:105770000133FB60FB68012BF1D9FB68012B05D9D4
:1057800006484521064A074BFFF7B4FFFB68184659
:105790001037BD4680BD00BF189800001C8A00006D
:1057A00028980000348A000080B584B000AF78608B
:1057B00039603B68002B05D116484C21164A174B1F
:1057C000FFF798FF7868FFF7C3FF0246144B53F8C2
:1057D00022301846FFF7A2FF7B6893F82130DBB236
:1057E00023F04803FB733B681B78012B03D1FB7B41
:1057F00043F04003FB733B685B78002B03D0FB7BDB
:1058000043F00803FB737B68FA7B83F82120103791
:10581000BD4680BD1C8A0000389800005C8A0000EC
:105820002098000080B582B000AF78607B68002BC4
:1058300005D107487221074A074BFFF75BFF7B68DA
:1058400001221A707B6800225A700837BD4680BD5D
:105850001C8A0000449800005C8A000080B485B077
:1058600000AF78607B681B0C03F1804303F58E2347
:10587000FB60FB68FA6811687A6892B2012000FA4E
:1058800002F20A431A601437BD465DF8047B704784
:1058900080B584B000AF78600023FB6007E00C4A5D
:1058A0007B689A4200D105E0FB680133FB60FB682E
:1058B000002BF4D0FB68002B05D006484C21064A8B
:1058C000064BFFF717FFFB6818461037BD4680BD33
:1058D00000100240848A00005C9800009C8A00004E
:1058E00080B582B000AF78607868FFF7D1FF034BD6
:1058F0001846FFF7B3FF0837BD4680BD01003C10D6
:1059000080B485B000AF78607B681B0C03F18043E6
:1059100003F58E23FB60FB68FA6811687A6892B21F
:10592000012000FA02F20A431A601437BD465DF8FE
:10593000047B704780B483B000AF78600B46FB7087
:10594000FB78002B06D07B681B6823F480427B68C1
:105950001A6005E07B681B6843F480427B681A602C
:105960000C37BD465DF8047B704700BF80B483B040
:1059700000AF78600B46FB707B681B6823F0004229
:10598000FB78DB071A437B681A600C37BD465DF86D
:10599000047B704780B483B000AF78607B681B687D
:1059A000DB0FDBB218460C37BD465DF8047B704751
:1059B00080B483B000AF78607B681B6823F001027D
:1059C0007B681A600C37BD465DF8047B704700BFEA
:1059D00080B483B000AF78607B681B6843F001023D
:1059E0007B681A600C37BD465DF8047B704700BFCA
:1059F00080B584B000AF78600023FB600AE00E4BF6
:105A0000FA6853F822207B689A4200D105E0FB68CF
:105A10000133FB60FB68022BF1D9FB68022B05D92F
:105A200006489C21064A074BFFF764FEFB681846B0
:105A30001037BD4680BD00BF10990000C48A000029
:105A400028990000DC8A000080B588B002AFF860B9
:105A5000B9607A60BB68002B05D15648A321564A2D
:105A6000564BFFF747FEF868FFF7C2FF0246544B5C
:105A700053F822301846FFF743FFF8680121FFF77B
:105A800059FFF868FFF7A4FFF8680121FFF76EFFE0
:105A9000FB681B6823F08A4323F44C537B61BB688B
:105AA0009B7F9B0703F080427B691A43BB6893F896
:105AB00020309B0603F080631A43BB68DB7F1B0624
:105AC00003F080731A43BB6893F821301B0203F480
:105AD00040731A43FB681A60BB681A7FBB685B7F20
:105AE000F86811461A4600F06FF8BB681A78BB6870
:105AF0005B68F86811461A467B6800F08BF803462D
:105B0000002B05D12B48BC212B4A2E4BFFF7F2FD71
:105B1000BB681B78FA6802339B0013445B6823F070
:105B2000FE437B61BB681B78BA689268013AD20673
:105B300002F0F0417A691143BA68127B920602F0D2
:105B400080621143BA68527B520602F00072114320
:105B5000BA68927B120602F080720A43F968023337
:105B60009B000B445A60BB681B78BA6812690092AC
:105B7000F868194601227B6800F044F9BB681B787D
:105B8000BA6852690092F868194602227B6800F0F0
:105B900039F9BB681B78BA6892690092F8681946AF
:105BA00003227B6800F02EF9F868FFF701FF183731
:105BB000BD4680BDC48A00003C990000048B0000F3
:105BC0001C990000148B000080B485B000AF786091
:105BD00013460A46FA70BB707B681B68FB60BB7893
:105BE000012B07D1FB781B0403F47C13FA681343E1
:105BF000FB6007E0FB781B0403F47C13DB43FA68CB
:105C00001340FB607B68FA681A601437BD465DF884
:105C1000047B704780B590B000AFF8607A603B605D
:105C20000B46FB72F868FFF7B5FE034683F00103ED
:105C3000DBB2002B01D0002371E07B68FB614FF0E9
:105C4000FF333B620023BB6300233B630123BB6242
:105C500000237B620023FB6341E000237B6335E08C
:105C60000123FB6229E03B68FA6A02FB03F22E4B38
:105C7000F96B53F821302D49786B51F8201001FB56
:105C800003F3B2FBF3F3BB61FA69BB699A4211D328
:105C9000FA69BB69D31A7B613A6A7B699A4209D96E
:105CA0007B693B62FB6BBB637B6B3B63BB697B626A
:105CB000FB6ABB62FB6A0133FB62FB6A022B02D800
:105CC0003B6A002BCFD17B6B01337B637B6B0F2B4C
:105CD00002D83B6A002BC3D1FB6B0133FB63FB6B28
:105CE000032B02D83B6A002BB7D1FB7AFA68023348
